{
  "_format": "hh-sol-artifact-1",
  "contractName": "EmpowerDefiNFT",
  "sourceName": "contracts/EmpowerDefiNFT.sol",
  "abi": [
    {
      "inputs": [],
      "stateMutability": "nonpayable",
      "type": "constructor"
    },
    {
      "anonymous": false,
      "inputs": [
        {
          "indexed": true,
          "internalType": "address",
          "name": "owner",
          "type": "address"
        },
        {
          "indexed": true,
          "internalType": "address",
          "name": "approved",
          "type": "address"
        },
        {
          "indexed": true,
          "internalType": "uint256",
          "name": "tokenId",
          "type": "uint256"
        }
      ],
      "name": "Approval",
      "type": "event"
    },
    {
      "anonymous": false,
      "inputs": [
        {
          "indexed": true,
          "internalType": "address",
          "name": "owner",
          "type": "address"
        },
        {
          "indexed": true,
          "internalType": "address",
          "name": "operator",
          "type": "address"
        },
        {
          "indexed": false,
          "internalType": "bool",
          "name": "approved",
          "type": "bool"
        }
      ],
      "name": "ApprovalForAll",
      "type": "event"
    },
    {
      "anonymous": false,
      "inputs": [
        {
          "indexed": true,
          "internalType": "address",
          "name": "previousOwner",
          "type": "address"
        },
        {
          "indexed": true,
          "internalType": "address",
          "name": "newOwner",
          "type": "address"
        }
      ],
      "name": "OwnershipTransferred",
      "type": "event"
    },
    {
      "anonymous": false,
      "inputs": [
        {
          "indexed": true,
          "internalType": "address",
          "name": "from",
          "type": "address"
        },
        {
          "indexed": true,
          "internalType": "address",
          "name": "to",
          "type": "address"
        },
        {
          "indexed": true,
          "internalType": "uint256",
          "name": "tokenId",
          "type": "uint256"
        }
      ],
      "name": "Transfer",
      "type": "event"
    },
    {
      "inputs": [
        {
          "internalType": "address",
          "name": "to",
          "type": "address"
        },
        {
          "internalType": "uint256",
          "name": "tokenId",
          "type": "uint256"
        }
      ],
      "name": "approve",
      "outputs": [],
      "stateMutability": "nonpayable",
      "type": "function"
    },
    {
      "inputs": [
        {
          "internalType": "address",
          "name": "owner",
          "type": "address"
        }
      ],
      "name": "balanceOf",
      "outputs": [
        {
          "internalType": "uint256",
          "name": "",
          "type": "uint256"
        }
      ],
      "stateMutability": "view",
      "type": "function"
    },
    {
      "inputs": [],
      "name": "baseUri",
      "outputs": [
        {
          "internalType": "string",
          "name": "",
          "type": "string"
        }
      ],
      "stateMutability": "view",
      "type": "function"
    },
    {
      "inputs": [
        {
          "internalType": "uint256",
          "name": "tokenId",
          "type": "uint256"
        }
      ],
      "name": "burn",
      "outputs": [],
      "stateMutability": "nonpayable",
      "type": "function"
    },
    {
      "inputs": [
        {
          "internalType": "uint256",
          "name": "tokenId",
          "type": "uint256"
        }
      ],
      "name": "getApproved",
      "outputs": [
        {
          "internalType": "address",
          "name": "",
          "type": "address"
        }
      ],
      "stateMutability": "view",
      "type": "function"
    },
    {
      "inputs": [
        {
          "internalType": "address",
          "name": "owner",
          "type": "address"
        },
        {
          "internalType": "address",
          "name": "operator",
          "type": "address"
        }
      ],
      "name": "isApprovedForAll",
      "outputs": [
        {
          "internalType": "bool",
          "name": "",
          "type": "bool"
        }
      ],
      "stateMutability": "view",
      "type": "function"
    },
    {
      "inputs": [
        {
          "internalType": "uint256",
          "name": "tokenId",
          "type": "uint256"
        }
      ],
      "name": "mint",
      "outputs": [],
      "stateMutability": "nonpayable",
      "type": "function"
    },
    {
      "inputs": [],
      "name": "name",
      "outputs": [
        {
          "internalType": "string",
          "name": "",
          "type": "string"
        }
      ],
      "stateMutability": "view",
      "type": "function"
    },
    {
      "inputs": [],
      "name": "owner",
      "outputs": [
        {
          "internalType": "address",
          "name": "",
          "type": "address"
        }
      ],
      "stateMutability": "view",
      "type": "function"
    },
    {
      "inputs": [
        {
          "internalType": "uint256",
          "name": "tokenId",
          "type": "uint256"
        }
      ],
      "name": "ownerOf",
      "outputs": [
        {
          "internalType": "address",
          "name": "",
          "type": "address"
        }
      ],
      "stateMutability": "view",
      "type": "function"
    },
    {
      "inputs": [],
      "name": "renounceOwnership",
      "outputs": [],
      "stateMutability": "nonpayable",
      "type": "function"
    },
    {
      "inputs": [
        {
          "internalType": "address",
          "name": "from",
          "type": "address"
        },
        {
          "internalType": "address",
          "name": "to",
          "type": "address"
        },
        {
          "internalType": "uint256",
          "name": "tokenId",
          "type": "uint256"
        }
      ],
      "name": "safeTransferFrom",
      "outputs": [],
      "stateMutability": "nonpayable",
      "type": "function"
    },
    {
      "inputs": [
        {
          "internalType": "address",
          "name": "from",
          "type": "address"
        },
        {
          "internalType": "address",
          "name": "to",
          "type": "address"
        },
        {
          "internalType": "uint256",
          "name": "tokenId",
          "type": "uint256"
        },
        {
          "internalType": "bytes",
          "name": "data",
          "type": "bytes"
        }
      ],
      "name": "safeTransferFrom",
      "outputs": [],
      "stateMutability": "nonpayable",
      "type": "function"
    },
    {
      "inputs": [
        {
          "internalType": "address",
          "name": "operator",
          "type": "address"
        },
        {
          "internalType": "bool",
          "name": "approved",
          "type": "bool"
        }
      ],
      "name": "setApprovalForAll",
      "outputs": [],
      "stateMutability": "nonpayable",
      "type": "function"
    },
    {
      "inputs": [
        {
          "internalType": "string",
          "name": "_baseUri",
          "type": "string"
        }
      ],
      "name": "setBaseURI",
      "outputs": [],
      "stateMutability": "nonpayable",
      "type": "function"
    },
    {
      "inputs": [
        {
          "internalType": "bytes4",
          "name": "interfaceId",
          "type": "bytes4"
        }
      ],
      "name": "supportsInterface",
      "outputs": [
        {
          "internalType": "bool",
          "name": "",
          "type": "bool"
        }
      ],
      "stateMutability": "view",
      "type": "function"
    },
    {
      "inputs": [],
      "name": "symbol",
      "outputs": [
        {
          "internalType": "string",
          "name": "",
          "type": "string"
        }
      ],
      "stateMutability": "view",
      "type": "function"
    },
    {
      "inputs": [
        {
          "internalType": "uint256",
          "name": "tokenId",
          "type": "uint256"
        }
      ],
      "name": "tokenURI",
      "outputs": [
        {
          "internalType": "string",
          "name": "",
          "type": "string"
        }
      ],
      "stateMutability": "view",
      "type": "function"
    },
    {
      "inputs": [
        {
          "internalType": "address",
          "name": "from",
          "type": "address"
        },
        {
          "internalType": "address",
          "name": "to",
          "type": "address"
        },
        {
          "internalType": "uint256",
          "name": "tokenId",
          "type": "uint256"
        }
      ],
      "name": "transferFrom",
      "outputs": [],
      "stateMutability": "nonpayable",
      "type": "function"
    },
    {
      "inputs": [
        {
          "internalType": "address",
          "name": "newOwner",
          "type": "address"
        }
      ],
      "name": "transferOwnership",
      "outputs": [],
      "stateMutability": "nonpayable",
      "type": "function"
    }
  ],
  "bytecode": "0x6080604052604051806060016040528060248152602001620035f760249139600890816200002e91906200043d565b503480156200003c57600080fd5b506040518060400160405280600f81526020017f456d706f77657244656669204e465400000000000000000000000000000000008152506040518060400160405280600781526020017f446566694e4654000000000000000000000000000000000000000000000000008152508160009081620000ba91906200043d565b508060019081620000cc91906200043d565b505050620000ef620000e3620000f560201b60201c565b620000fd60201b60201c565b62000524565b600033905090565b6000600760009054906101000a900473ffffffffffffffffffffffffffffffffffffffff16905081600760006101000a81548173ffffffffffffffffffffffffffffffffffffffff021916908373ffffffffffffffffffffffffffffffffffffffff1602179055508173ffffffffffffffffffffffffffffffffffffffff168173ffffffffffffffffffffffffffffffffffffffff167f8be0079c531659141344cd1fd0a4f28419497f9722a3daafe3b4186f6b6457e060405160405180910390a35050565b600081519050919050565b7f4e487b7100000000000000000000000000000000000000000000000000000000600052604160045260246000fd5b7f4e487b7100000000000000000000000000000000000000000000000000000000600052602260045260246000fd5b600060028204905060018216806200024557607f821691505b6020821081036200025b576200025a620001fd565b5b50919050565b60008190508160005260206000209050919050565b60006020601f8301049050919050565b600082821b905092915050565b600060088302620002c57fffffffffffffffffffffffffffffffffffffffffffffffffffffffffffffffff8262000286565b620002d1868362000286565b95508019841693508086168417925050509392505050565b6000819050919050565b6000819050919050565b60006200031e620003186200031284620002e9565b620002f3565b620002e9565b9050919050565b6000819050919050565b6200033a83620002fd565b62000352620003498262000325565b84845462000293565b825550505050565b600090565b620003696200035a565b620003768184846200032f565b505050565b5b818110156200039e57620003926000826200035f565b6001810190506200037c565b5050565b601f821115620003ed57620003b78162000261565b620003c28462000276565b81016020851015620003d2578190505b620003ea620003e18562000276565b8301826200037b565b50505b505050565b600082821c905092915050565b60006200041260001984600802620003f2565b1980831691505092915050565b60006200042d8383620003ff565b9150826002028217905092915050565b6200044882620001c3565b67ffffffffffffffff811115620004645762000463620001ce565b5b6200047082546200022c565b6200047d828285620003a2565b600060209050601f831160018114620004b55760008415620004a0578287015190505b620004ac85826200041f565b8655506200051c565b601f198416620004c58662000261565b60005b82811015620004ef57848901518255600182019150602085019450602081019050620004c8565b868310156200050f57848901516200050b601f891682620003ff565b8355505b6001600288020188555050505b505050505050565b6130c380620005346000396000f3fe608060405234801561001057600080fd5b506004361061012c5760003560e01c8063715018a6116100ad578063a22cb46511610071578063a22cb4651461031b578063b88d4fde14610337578063c87b56dd14610353578063e985e9c514610383578063f2fde38b146103b35761012c565b8063715018a61461029b5780638da5cb5b146102a557806395d89b41146102c35780639abc8320146102e1578063a0712d68146102ff5761012c565b806342842e0e116100f457806342842e0e146101e757806342966c681461020357806355f804b31461021f5780636352211e1461023b57806370a082311461026b5761012c565b806301ffc9a71461013157806306fdde0314610161578063081812fc1461017f578063095ea7b3146101af57806323b872dd146101cb575b600080fd5b61014b60048036038101906101469190611eed565b6103cf565b6040516101589190611f35565b60405180910390f35b6101696104b1565b6040516101769190611fe0565b60405180910390f35b61019960048036038101906101949190612038565b610543565b6040516101a691906120a6565b60405180910390f35b6101c960048036038101906101c491906120ed565b610589565b005b6101e560048036038101906101e0919061212d565b6106a0565b005b61020160048036038101906101fc919061212d565b610700565b005b61021d60048036038101906102189190612038565b610720565b005b610239600480360381019061023491906122b5565b610734565b005b61025560048036038101906102509190612038565b61074f565b60405161026291906120a6565b60405180910390f35b610285600480360381019061028091906122fe565b6107d5565b604051610292919061233a565b60405180910390f35b6102a361088c565b005b6102ad6108a0565b6040516102ba91906120a6565b60405180910390f35b6102cb6108ca565b6040516102d89190611fe0565b60405180910390f35b6102e961095c565b6040516102f69190611fe0565b60405180910390f35b61031960048036038101906103149190612038565b6109ea565b005b61033560048036038101906103309190612381565b610a48565b005b610351600480360381019061034c9190612462565b610a5e565b005b61036d60048036038101906103689190612038565b610ac0565b60405161037a9190611fe0565b60405180910390f35b61039d600480360381019061039891906124e5565b610ad2565b6040516103aa9190611f35565b60405180910390f35b6103cd60048036038101906103c891906122fe565b610b66565b005b60007f80ac58cd000000000000000000000000000000000000000000000000000000007bffffffffffffffffffffffffffffffffffffffffffffffffffffffff1916827bffffffffffffffffffffffffffffffffffffffffffffffffffffffff1916148061049a57507f5b5e139f000000000000000000000000000000000000000000000000000000007bffffffffffffffffffffffffffffffffffffffffffffffffffffffff1916827bffffffffffffffffffffffffffffffffffffffffffffffffffffffff1916145b806104aa57506104a982610be9565b5b9050919050565b6060600080546104c090612554565b80601f01602080910402602001604051908101604052809291908181526020018280546104ec90612554565b80156105395780601f1061050e57610100808354040283529160200191610539565b820191906000526020600020905b81548152906001019060200180831161051c57829003601f168201915b5050505050905090565b600061054e82610c53565b6004600083815260200190815260200160002060009054906101000a900473ffffffffffffffffffffffffffffffffffffffff169050919050565b60006105948261074f565b90508073ffffffffffffffffffffffffffffffffffffffff168373ffffffffffffffffffffffffffffffffffffffff1603610604576040517f08c379a00000000000000000000000000000000000000000000000000000000081526004016105fb906125f7565b60405180910390fd5b8073ffffffffffffffffffffffffffffffffffffffff16610623610c9e565b73ffffffffffffffffffffffffffffffffffffffff16148061065257506106518161064c610c9e565b610ad2565b5b610691576040517f08c379a000000000000000000000000000000000000000000000000000000000815260040161068890612689565b60405180910390fd5b61069b8383610ca6565b505050565b6106b16106ab610c9e565b82610d5f565b6106f0576040517f08c379a00000000000000000000000000000000000000000000000000000000081526004016106e79061271b565b60405180910390fd5b6106fb838383610df4565b505050565b61071b83838360405180602001604052806000815250610a5e565b505050565b6107286110ed565b6107318161116b565b50565b61073c6110ed565b806008908161074b91906128e7565b5050565b60008061075b83611177565b9050600073ffffffffffffffffffffffffffffffffffffffff168173ffffffffffffffffffffffffffffffffffffffff16036107cc576040517f08c379a00000000000000000000000000000000000000000000000000000000081526004016107c390612a05565b60405180910390fd5b80915050919050565b60008073ffffffffffffffffffffffffffffffffffffffff168273ffffffffffffffffffffffffffffffffffffffff1603610845576040517f08c379a000000000000000000000000000000000000000000000000000000000815260040161083c90612a97565b60405180910390fd5b600360008373ffffffffffffffffffffffffffffffffffffffff1673ffffffffffffffffffffffffffffffffffffffff168152602001908152602001600020549050919050565b6108946110ed565b61089e60006111b4565b565b6000600760009054906101000a900473ffffffffffffffffffffffffffffffffffffffff16905090565b6060600180546108d990612554565b80601f016020809104026020016040519081016040528092919081815260200182805461090590612554565b80156109525780601f1061092757610100808354040283529160200191610952565b820191906000526020600020905b81548152906001019060200180831161093557829003601f168201915b5050505050905090565b6008805461096990612554565b80601f016020809104026020016040519081016040528092919081815260200182805461099590612554565b80156109e25780601f106109b7576101008083540402835291602001916109e2565b820191906000526020600020905b8154815290600101906020018083116109c557829003601f168201915b505050505081565b6109f26110ed565b6109fb8161127a565b15610a3b576040517f08c379a0000000000000000000000000000000000000000000000000000000008152600401610a3290612b03565b60405180910390fd5b610a4533826112bb565b50565b610a5a610a53610c9e565b83836114d8565b5050565b610a6f610a69610c9e565b83610d5f565b610aae576040517f08c379a0000000000000000000000000000000000000000000000000000000008152600401610aa59061271b565b60405180910390fd5b610aba84848484611644565b50505050565b6060610acb826116a0565b9050919050565b6000600560008473ffffffffffffffffffffffffffffffffffffffff1673ffffffffffffffffffffffffffffffffffffffff16815260200190815260200160002060008373ffffffffffffffffffffffffffffffffffffffff1673ffffffffffffffffffffffffffffffffffffffff16815260200190815260200160002060009054906101000a900460ff16905092915050565b610b6e6110ed565b600073ffffffffffffffffffffffffffffffffffffffff168173ffffffffffffffffffffffffffffffffffffffff1603610bdd576040517f08c379a0000000000000000000000000000000000000000000000000000000008152600401610bd490612b95565b60405180910390fd5b610be6816111b4565b50565b60007f01ffc9a7000000000000000000000000000000000000000000000000000000007bffffffffffffffffffffffffffffffffffffffffffffffffffffffff1916827bffffffffffffffffffffffffffffffffffffffffffffffffffffffff1916149050919050565b610c5c8161127a565b610c9b576040517f08c379a0000000000000000000000000000000000000000000000000000000008152600401610c9290612a05565b60405180910390fd5b50565b600033905090565b816004600083815260200190815260200160002060006101000a81548173ffffffffffffffffffffffffffffffffffffffff021916908373ffffffffffffffffffffffffffffffffffffffff160217905550808273ffffffffffffffffffffffffffffffffffffffff16610d198361074f565b73ffffffffffffffffffffffffffffffffffffffff167f8c5be1e5ebec7d5bd14f71427d1e84f3dd0314c0f7b2291e5b200ac8c7c3b92560405160405180910390a45050565b600080610d6b8361074f565b90508073ffffffffffffffffffffffffffffffffffffffff168473ffffffffffffffffffffffffffffffffffffffff161480610dad5750610dac8185610ad2565b5b80610deb57508373ffffffffffffffffffffffffffffffffffffffff16610dd384610543565b73ffffffffffffffffffffffffffffffffffffffff16145b91505092915050565b8273ffffffffffffffffffffffffffffffffffffffff16610e148261074f565b73ffffffffffffffffffffffffffffffffffffffff1614610e6a576040517f08c379a0000000000000000000000000000000000000000000000000000000008152600401610e6190612c27565b60405180910390fd5b600073ffffffffffffffffffffffffffffffffffffffff168273ffffffffffffffffffffffffffffffffffffffff1603610ed9576040517f08c379a0000000000000000000000000000000000000000000000000000000008152600401610ed090612cb9565b60405180910390fd5b610ee683838360016117b2565b8273ffffffffffffffffffffffffffffffffffffffff16610f068261074f565b73ffffffffffffffffffffffffffffffffffffffff1614610f5c576040517f08c379a0000000000000000000000000000000000000000000000000000000008152600401610f5390612c27565b60405180910390fd5b6004600082815260200190815260200160002060006101000a81549073ffffffffffffffffffffffffffffffffffffffff02191690556001600360008573ffffffffffffffffffffffffffffffffffffffff1673ffffffffffffffffffffffffffffffffffffffff168152602001908152602001600020600082825403925050819055506001600360008473ffffffffffffffffffffffffffffffffffffffff1673ffffffffffffffffffffffffffffffffffffffff16815260200190815260200160002060008282540192505081905550816002600083815260200190815260200160002060006101000a81548173ffffffffffffffffffffffffffffffffffffffff021916908373ffffffffffffffffffffffffffffffffffffffff160217905550808273ffffffffffffffffffffffffffffffffffffffff168473ffffffffffffffffffffffffffffffffffffffff167fddf252ad1be2c89b69c2b068fc378daa952ba7f163c4a11628f55a4df523b3ef60405160405180910390a46110e883838360016117b8565b505050565b6110f5610c9e565b73ffffffffffffffffffffffffffffffffffffffff166111136108a0565b73ffffffffffffffffffffffffffffffffffffffff1614611169576040517f08c379a000000000000000000000000000000000000000000000000000000000815260040161116090612d25565b60405180910390fd5b565b611174816117be565b50565b60006002600083815260200190815260200160002060009054906101000a900473ffffffffffffffffffffffffffffffffffffffff169050919050565b6000600760009054906101000a900473ffffffffffffffffffffffffffffffffffffffff16905081600760006101000a81548173ffffffffffffffffffffffffffffffffffffffff021916908373ffffffffffffffffffffffffffffffffffffffff1602179055508173ffffffffffffffffffffffffffffffffffffffff168173ffffffffffffffffffffffffffffffffffffffff167f8be0079c531659141344cd1fd0a4f28419497f9722a3daafe3b4186f6b6457e060405160405180910390a35050565b60008073ffffffffffffffffffffffffffffffffffffffff1661129c83611177565b73ffffffffffffffffffffffffffffffffffffffff1614159050919050565b600073ffffffffffffffffffffffffffffffffffffffff168273ffffffffffffffffffffffffffffffffffffffff160361132a576040517f08c379a000000000000000000000000000000000000000000000000000000000815260040161132190612d91565b60405180910390fd5b6113338161127a565b15611373576040517f08c379a000000000000000000000000000000000000000000000000000000000815260040161136a90612dfd565b60405180910390fd5b6113816000838360016117b2565b61138a8161127a565b156113ca576040517f08c379a00000000000000000000000000000000000000000000000000000000081526004016113c190612dfd565b60405180910390fd5b6001600360008473ffffffffffffffffffffffffffffffffffffffff1673ffffffffffffffffffffffffffffffffffffffff16815260200190815260200160002060008282540192505081905550816002600083815260200190815260200160002060006101000a81548173ffffffffffffffffffffffffffffffffffffffff021916908373ffffffffffffffffffffffffffffffffffffffff160217905550808273ffffffffffffffffffffffffffffffffffffffff16600073ffffffffffffffffffffffffffffffffffffffff167fddf252ad1be2c89b69c2b068fc378daa952ba7f163c4a11628f55a4df523b3ef60405160405180910390a46114d46000838360016117b8565b5050565b8173ffffffffffffffffffffffffffffffffffffffff168373ffffffffffffffffffffffffffffffffffffffff1603611546576040517f08c379a000000000000000000000000000000000000000000000000000000000815260040161153d90612e69565b60405180910390fd5b80600560008573ffffffffffffffffffffffffffffffffffffffff1673ffffffffffffffffffffffffffffffffffffffff16815260200190815260200160002060008473ffffffffffffffffffffffffffffffffffffffff1673ffffffffffffffffffffffffffffffffffffffff16815260200190815260200160002060006101000a81548160ff0219169083151502179055508173ffffffffffffffffffffffffffffffffffffffff168373ffffffffffffffffffffffffffffffffffffffff167f17307eab39ab6107e8899845ad3d59bd9653f200f220920489ca2b5937696c31836040516116379190611f35565b60405180910390a3505050565b61164f848484610df4565b61165b84848484611811565b61169a576040517f08c379a000000000000000000000000000000000000000000000000000000000815260040161169190612efb565b60405180910390fd5b50505050565b60606116ab82610c53565b60006006600084815260200190815260200160002080546116cb90612554565b80601f01602080910402602001604051908101604052809291908181526020018280546116f790612554565b80156117445780601f1061171957610100808354040283529160200191611744565b820191906000526020600020905b81548152906001019060200180831161172757829003601f168201915b505050505090506000611755611998565b9050600081510361176a5781925050506117ad565b60008251111561179f578082604051602001611787929190612f57565b604051602081830303815290604052925050506117ad565b6117a884611a2a565b925050505b919050565b50505050565b50505050565b6117c781611a92565b60006006600083815260200190815260200160002080546117e790612554565b90501461180e5760066000828152602001908152602001600020600061180d9190611e24565b5b50565b60006118328473ffffffffffffffffffffffffffffffffffffffff16611be0565b1561198b578373ffffffffffffffffffffffffffffffffffffffff1663150b7a0261185b610c9e565b8786866040518563ffffffff1660e01b815260040161187d9493929190612fd0565b6020604051808303816000875af19250505080156118b957506040513d601f19601f820116820180604052508101906118b69190613031565b60015b61193b573d80600081146118e9576040519150601f19603f3d011682016040523d82523d6000602084013e6118ee565b606091505b506000815103611933576040517f08c379a000000000000000000000000000000000000000000000000000000000815260040161192a90612efb565b60405180910390fd5b805181602001fd5b63150b7a0260e01b7bffffffffffffffffffffffffffffffffffffffffffffffffffffffff1916817bffffffffffffffffffffffffffffffffffffffffffffffffffffffff191614915050611990565b600190505b949350505050565b6060600880546119a790612554565b80601f01602080910402602001604051908101604052809291908181526020018280546119d390612554565b8015611a205780601f106119f557610100808354040283529160200191611a20565b820191906000526020600020905b815481529060010190602001808311611a0357829003601f168201915b5050505050905090565b6060611a3582610c53565b6000611a3f611998565b90506000815111611a5f5760405180602001604052806000815250611a8a565b80611a6984611c03565b604051602001611a7a929190612f57565b6040516020818303038152906040525b915050919050565b6000611a9d8261074f565b9050611aad8160008460016117b2565b611ab68261074f565b90506004600083815260200190815260200160002060006101000a81549073ffffffffffffffffffffffffffffffffffffffff02191690556001600360008373ffffffffffffffffffffffffffffffffffffffff1673ffffffffffffffffffffffffffffffffffffffff168152602001908152602001600020600082825403925050819055506002600083815260200190815260200160002060006101000a81549073ffffffffffffffffffffffffffffffffffffffff021916905581600073ffffffffffffffffffffffffffffffffffffffff168273ffffffffffffffffffffffffffffffffffffffff167fddf252ad1be2c89b69c2b068fc378daa952ba7f163c4a11628f55a4df523b3ef60405160405180910390a4611bdc8160008460016117b8565b5050565b6000808273ffffffffffffffffffffffffffffffffffffffff163b119050919050565b606060006001611c1284611cd1565b01905060008167ffffffffffffffff811115611c3157611c3061218a565b5b6040519080825280601f01601f191660200182016040528015611c635781602001600182028036833780820191505090505b509050600082602001820190505b600115611cc6578080600190039150507f3031323334353637383961626364656600000000000000000000000000000000600a86061a8153600a8581611cba57611cb961305e565b5b04945060008503611c71575b819350505050919050565b600080600090507a184f03e93ff9f4daa797ed6e38ed64bf6a1f0100000000000000008310611d2f577a184f03e93ff9f4daa797ed6e38ed64bf6a1f0100000000000000008381611d2557611d2461305e565b5b0492506040810190505b6d04ee2d6d415b85acef81000000008310611d6c576d04ee2d6d415b85acef81000000008381611d6257611d6161305e565b5b0492506020810190505b662386f26fc100008310611d9b57662386f26fc100008381611d9157611d9061305e565b5b0492506010810190505b6305f5e1008310611dc4576305f5e1008381611dba57611db961305e565b5b0492506008810190505b6127108310611de9576127108381611ddf57611dde61305e565b5b0492506004810190505b60648310611e0c5760648381611e0257611e0161305e565b5b0492506002810190505b600a8310611e1b576001810190505b80915050919050565b508054611e3090612554565b6000825580601f10611e425750611e61565b601f016020900490600052602060002090810190611e609190611e64565b5b50565b5b80821115611e7d576000816000905550600101611e65565b5090565b6000604051905090565b600080fd5b600080fd5b60007fffffffff0000000000000000000000000000000000000000000000000000000082169050919050565b611eca81611e95565b8114611ed557600080fd5b50565b600081359050611ee781611ec1565b92915050565b600060208284031215611f0357611f02611e8b565b5b6000611f1184828501611ed8565b91505092915050565b60008115159050919050565b611f2f81611f1a565b82525050565b6000602082019050611f4a6000830184611f26565b92915050565b600081519050919050565b600082825260208201905092915050565b60005b83811015611f8a578082015181840152602081019050611f6f565b60008484015250505050565b6000601f19601f8301169050919050565b6000611fb282611f50565b611fbc8185611f5b565b9350611fcc818560208601611f6c565b611fd581611f96565b840191505092915050565b60006020820190508181036000830152611ffa8184611fa7565b905092915050565b6000819050919050565b61201581612002565b811461202057600080fd5b50565b6000813590506120328161200c565b92915050565b60006020828403121561204e5761204d611e8b565b5b600061205c84828501612023565b91505092915050565b600073ffffffffffffffffffffffffffffffffffffffff82169050919050565b600061209082612065565b9050919050565b6120a081612085565b82525050565b60006020820190506120bb6000830184612097565b92915050565b6120ca81612085565b81146120d557600080fd5b50565b6000813590506120e7816120c1565b92915050565b6000806040838503121561210457612103611e8b565b5b6000612112858286016120d8565b925050602061212385828601612023565b9150509250929050565b60008060006060848603121561214657612145611e8b565b5b6000612154868287016120d8565b9350506020612165868287016120d8565b925050604061217686828701612023565b9150509250925092565b600080fd5b600080fd5b7f4e487b7100000000000000000000000000000000000000000000000000000000600052604160045260246000fd5b6121c282611f96565b810181811067ffffffffffffffff821117156121e1576121e061218a565b5b80604052505050565b60006121f4611e81565b905061220082826121b9565b919050565b600067ffffffffffffffff8211156122205761221f61218a565b5b61222982611f96565b9050602081019050919050565b82818337600083830152505050565b600061225861225384612205565b6121ea565b90508281526020810184848401111561227457612273612185565b5b61227f848285612236565b509392505050565b600082601f83011261229c5761229b612180565b5b81356122ac848260208601612245565b91505092915050565b6000602082840312156122cb576122ca611e8b565b5b600082013567ffffffffffffffff8111156122e9576122e8611e90565b5b6122f584828501612287565b91505092915050565b60006020828403121561231457612313611e8b565b5b6000612322848285016120d8565b91505092915050565b61233481612002565b82525050565b600060208201905061234f600083018461232b565b92915050565b61235e81611f1a565b811461236957600080fd5b50565b60008135905061237b81612355565b92915050565b6000806040838503121561239857612397611e8b565b5b60006123a6858286016120d8565b92505060206123b78582860161236c565b9150509250929050565b600067ffffffffffffffff8211156123dc576123db61218a565b5b6123e582611f96565b9050602081019050919050565b6000612405612400846123c1565b6121ea565b90508281526020810184848401111561242157612420612185565b5b61242c848285612236565b509392505050565b600082601f83011261244957612448612180565b5b81356124598482602086016123f2565b91505092915050565b6000806000806080858703121561247c5761247b611e8b565b5b600061248a878288016120d8565b945050602061249b878288016120d8565b93505060406124ac87828801612023565b925050606085013567ffffffffffffffff8111156124cd576124cc611e90565b5b6124d987828801612434565b91505092959194509250565b600080604083850312156124fc576124fb611e8b565b5b600061250a858286016120d8565b925050602061251b858286016120d8565b9150509250929050565b7f4e487b7100000000000000000000000000000000000000000000000000000000600052602260045260246000fd5b6000600282049050600182168061256c57607f821691505b60208210810361257f5761257e612525565b5b50919050565b7f4552433732313a20617070726f76616c20746f2063757272656e74206f776e6560008201527f7200000000000000000000000000000000000000000000000000000000000000602082015250565b60006125e1602183611f5b565b91506125ec82612585565b604082019050919050565b60006020820190508181036000830152612610816125d4565b9050919050565b7f4552433732313a20617070726f76652063616c6c6572206973206e6f7420746f60008201527f6b656e206f776e6572206f7220617070726f76656420666f7220616c6c000000602082015250565b6000612673603d83611f5b565b915061267e82612617565b604082019050919050565b600060208201905081810360008301526126a281612666565b9050919050565b7f4552433732313a2063616c6c6572206973206e6f7420746f6b656e206f776e6560008201527f72206f7220617070726f76656400000000000000000000000000000000000000602082015250565b6000612705602d83611f5b565b9150612710826126a9565b604082019050919050565b60006020820190508181036000830152612734816126f8565b9050919050565b60008190508160005260206000209050919050565b60006020601f8301049050919050565b600082821b905092915050565b60006008830261279d7fffffffffffffffffffffffffffffffffffffffffffffffffffffffffffffffff82612760565b6127a78683612760565b95508019841693508086168417925050509392505050565b6000819050919050565b60006127e46127df6127da84612002565b6127bf565b612002565b9050919050565b6000819050919050565b6127fe836127c9565b61281261280a826127eb565b84845461276d565b825550505050565b600090565b61282761281a565b6128328184846127f5565b505050565b5b818110156128565761284b60008261281f565b600181019050612838565b5050565b601f82111561289b5761286c8161273b565b61287584612750565b81016020851015612884578190505b61289861289085612750565b830182612837565b50505b505050565b600082821c905092915050565b60006128be600019846008026128a0565b1980831691505092915050565b60006128d783836128ad565b9150826002028217905092915050565b6128f082611f50565b67ffffffffffffffff8111156129095761290861218a565b5b6129138254612554565b61291e82828561285a565b600060209050601f831160018114612951576000841561293f578287015190505b61294985826128cb565b8655506129b1565b601f19841661295f8661273b565b60005b8281101561298757848901518255600182019150602085019450602081019050612962565b868310156129a457848901516129a0601f8916826128ad565b8355505b6001600288020188555050505b505050505050565b7f4552433732313a20696e76616c696420746f6b656e2049440000000000000000600082015250565b60006129ef601883611f5b565b91506129fa826129b9565b602082019050919050565b60006020820190508181036000830152612a1e816129e2565b9050919050565b7f4552433732313a2061646472657373207a65726f206973206e6f74206120766160008201527f6c6964206f776e65720000000000000000000000000000000000000000000000602082015250565b6000612a81602983611f5b565b9150612a8c82612a25565b604082019050919050565b60006020820190508181036000830152612ab081612a74565b9050919050565b7f4572726f723a20546f6b656e496420616c7265616479206d696e746564000000600082015250565b6000612aed601d83611f5b565b9150612af882612ab7565b602082019050919050565b60006020820190508181036000830152612b1c81612ae0565b9050919050565b7f4f776e61626c653a206e6577206f776e657220697320746865207a65726f206160008201527f6464726573730000000000000000000000000000000000000000000000000000602082015250565b6000612b7f602683611f5b565b9150612b8a82612b23565b604082019050919050565b60006020820190508181036000830152612bae81612b72565b9050919050565b7f4552433732313a207472616e736665722066726f6d20696e636f72726563742060008201527f6f776e6572000000000000000000000000000000000000000000000000000000602082015250565b6000612c11602583611f5b565b9150612c1c82612bb5565b604082019050919050565b60006020820190508181036000830152612c4081612c04565b9050919050565b7f4552433732313a207472616e7366657220746f20746865207a65726f2061646460008201527f7265737300000000000000000000000000000000000000000000000000000000602082015250565b6000612ca3602483611f5b565b9150612cae82612c47565b604082019050919050565b60006020820190508181036000830152612cd281612c96565b9050919050565b7f4f776e61626c653a2063616c6c6572206973206e6f7420746865206f776e6572600082015250565b6000612d0f602083611f5b565b9150612d1a82612cd9565b602082019050919050565b60006020820190508181036000830152612d3e81612d02565b9050919050565b7f4552433732313a206d696e7420746f20746865207a65726f2061646472657373600082015250565b6000612d7b602083611f5b565b9150612d8682612d45565b602082019050919050565b60006020820190508181036000830152612daa81612d6e565b9050919050565b7f4552433732313a20746f6b656e20616c7265616479206d696e74656400000000600082015250565b6000612de7601c83611f5b565b9150612df282612db1565b602082019050919050565b60006020820190508181036000830152612e1681612dda565b9050919050565b7f4552433732313a20617070726f766520746f2063616c6c657200000000000000600082015250565b6000612e53601983611f5b565b9150612e5e82612e1d565b602082019050919050565b60006020820190508181036000830152612e8281612e46565b9050919050565b7f4552433732313a207472616e7366657220746f206e6f6e20455243373231526560008201527f63656976657220696d706c656d656e7465720000000000000000000000000000602082015250565b6000612ee5603283611f5b565b9150612ef082612e89565b604082019050919050565b60006020820190508181036000830152612f1481612ed8565b9050919050565b600081905092915050565b6000612f3182611f50565b612f3b8185612f1b565b9350612f4b818560208601611f6c565b80840191505092915050565b6000612f638285612f26565b9150612f6f8284612f26565b91508190509392505050565b600081519050919050565b600082825260208201905092915050565b6000612fa282612f7b565b612fac8185612f86565b9350612fbc818560208601611f6c565b612fc581611f96565b840191505092915050565b6000608082019050612fe56000830187612097565b612ff26020830186612097565b612fff604083018561232b565b81810360608301526130118184612f97565b905095945050505050565b60008151905061302b81611ec1565b92915050565b60006020828403121561304757613046611e8b565b5b60006130558482850161301c565b91505092915050565b7f4e487b7100000000000000000000000000000000000000000000000000000000600052601260045260246000fdfea26469706673582212207a607d748688fe2d2be780b9f16e96fc09d4bb8466f38a0d74409822b5a43f6164736f6c6343000813003368747470733a2f2f656d706f776572646566692e636f6d2f6170692f76312f6e6674732f",
  "linkReferences": {},
  "deployedLinkReferences": {}
}