{
  "_format": "hh-sol-artifact-1",
  "contractName": "EmpowerDefiCapital",
  "sourceName": "contracts/EmpowerDefiCapital.sol",
  "abi": [
    {
      "inputs": [
        {
          "internalType": "address",
          "name": "_usdcTokenAddress",
          "type": "address"
        },
        {
          "internalType": "address",
          "name": "_nftAddress",
          "type": "address"
        },
        {
          "internalType": "address",
          "name": "_mokiTokenAddress",
          "type": "address"
        }
      ],
      "stateMutability": "nonpayable",
      "type": "constructor"
    },
    {
      "anonymous": false,
      "inputs": [
        {
          "indexed": false,
          "internalType": "address",
          "name": "",
          "type": "address"
        }
      ],
      "name": "AdminWalletUpdated",
      "type": "event"
    },
    {
      "anonymous": false,
      "inputs": [
        {
          "indexed": false,
          "internalType": "address",
          "name": "",
          "type": "address"
        },
        {
          "indexed": false,
          "internalType": "uint256",
          "name": "",
          "type": "uint256"
        }
      ],
      "name": "EarningsReceived",
      "type": "event"
    },
    {
      "anonymous": false,
      "inputs": [
        {
          "indexed": false,
          "internalType": "uint256",
          "name": "",
          "type": "uint256"
        },
        {
          "indexed": false,
          "internalType": "uint256",
          "name": "",
          "type": "uint256"
        }
      ],
      "name": "EarningsWithdrawn",
      "type": "event"
    },
    {
      "anonymous": false,
      "inputs": [
        {
          "indexed": false,
          "internalType": "uint256",
          "name": "",
          "type": "uint256"
        },
        {
          "indexed": false,
          "internalType": "bool",
          "name": "",
          "type": "bool"
        },
        {
          "indexed": false,
          "internalType": "address",
          "name": "",
          "type": "address"
        },
        {
          "indexed": false,
          "internalType": "uint256",
          "name": "",
          "type": "uint256"
        }
      ],
      "name": "FNftForSale",
      "type": "event"
    },
    {
      "anonymous": false,
      "inputs": [
        {
          "indexed": true,
          "internalType": "address",
          "name": "loanOwner",
          "type": "address"
        },
        {
          "indexed": true,
          "internalType": "uint256",
          "name": "loanId",
          "type": "uint256"
        },
        {
          "indexed": false,
          "internalType": "uint256",
          "name": "interestRate",
          "type": "uint256"
        },
        {
          "indexed": false,
          "internalType": "uint256",
          "name": "totalReserves",
          "type": "uint256"
        },
        {
          "indexed": false,
          "internalType": "uint256",
          "name": "remainingReserves",
          "type": "uint256"
        }
      ],
      "name": "LoanCreated",
      "type": "event"
    },
    {
      "anonymous": false,
      "inputs": [
        {
          "indexed": true,
          "internalType": "address",
          "name": "loanOwner",
          "type": "address"
        },
        {
          "indexed": true,
          "internalType": "uint256",
          "name": "loanIndex",
          "type": "uint256"
        }
      ],
      "name": "LoanUnavailable",
      "type": "event"
    },
    {
      "anonymous": false,
      "inputs": [
        {
          "indexed": true,
          "internalType": "address",
          "name": "previousOwner",
          "type": "address"
        },
        {
          "indexed": true,
          "internalType": "address",
          "name": "newOwner",
          "type": "address"
        }
      ],
      "name": "OwnershipTransferred",
      "type": "event"
    },
    {
      "anonymous": false,
      "inputs": [
        {
          "indexed": false,
          "internalType": "address",
          "name": "",
          "type": "address"
        },
        {
          "indexed": false,
          "internalType": "address",
          "name": "",
          "type": "address"
        },
        {
          "indexed": false,
          "internalType": "uint256",
          "name": "",
          "type": "uint256"
        }
      ],
      "name": "PaymentSent",
      "type": "event"
    },
    {
      "anonymous": false,
      "inputs": [
        {
          "indexed": false,
          "internalType": "uint256",
          "name": "",
          "type": "uint256"
        }
      ],
      "name": "RateUpdated",
      "type": "event"
    },
    {
      "anonymous": false,
      "inputs": [
        {
          "indexed": true,
          "internalType": "address",
          "name": "borrower",
          "type": "address"
        },
        {
          "indexed": true,
          "internalType": "address",
          "name": "lender",
          "type": "address"
        },
        {
          "indexed": true,
          "internalType": "uint256",
          "name": "loanIndex",
          "type": "uint256"
        },
        {
          "indexed": false,
          "internalType": "uint256",
          "name": "amount",
          "type": "uint256"
        }
      ],
      "name": "ReservesBorrowed",
      "type": "event"
    },
    {
      "anonymous": false,
      "inputs": [
        {
          "indexed": false,
          "internalType": "address",
          "name": "",
          "type": "address"
        },
        {
          "indexed": false,
          "internalType": "uint256",
          "name": "",
          "type": "uint256"
        }
      ],
      "name": "UserWithdrawal",
      "type": "event"
    },
    {
      "anonymous": false,
      "inputs": [
        {
          "indexed": false,
          "internalType": "uint256",
          "name": "",
          "type": "uint256"
        },
        {
          "indexed": false,
          "internalType": "address",
          "name": "",
          "type": "address"
        },
        {
          "indexed": false,
          "internalType": "address",
          "name": "",
          "type": "address"
        },
        {
          "indexed": false,
          "internalType": "uint256",
          "name": "",
          "type": "uint256"
        }
      ],
      "name": "fNftSold",
      "type": "event"
    },
    {
      "inputs": [],
      "name": "adminWallet",
      "outputs": [
        {
          "internalType": "address",
          "name": "",
          "type": "address"
        }
      ],
      "stateMutability": "view",
      "type": "function"
    },
    {
      "inputs": [
        {
          "internalType": "uint256",
          "name": "_loanIndex",
          "type": "uint256"
        },
        {
          "internalType": "uint256",
          "name": "_amount",
          "type": "uint256"
        }
      ],
      "name": "borrow",
      "outputs": [],
      "stateMutability": "nonpayable",
      "type": "function"
    },
    {
      "inputs": [
        {
          "internalType": "uint256",
          "name": "",
          "type": "uint256"
        }
      ],
      "name": "borrower",
      "outputs": [
        {
          "internalType": "uint256",
          "name": "id",
          "type": "uint256"
        },
        {
          "internalType": "address",
          "name": "borrowerAddress",
          "type": "address"
        },
        {
          "internalType": "uint256",
          "name": "balance",
          "type": "uint256"
        }
      ],
      "stateMutability": "view",
      "type": "function"
    },
    {
      "inputs": [
        {
          "internalType": "uint256",
          "name": "_loanIndex",
          "type": "uint256"
        }
      ],
      "name": "buyFnft",
      "outputs": [],
      "stateMutability": "nonpayable",
      "type": "function"
    },
    {
      "inputs": [
        {
          "internalType": "address",
          "name": "",
          "type": "address"
        }
      ],
      "name": "claimableAmount",
      "outputs": [
        {
          "internalType": "uint256",
          "name": "",
          "type": "uint256"
        }
      ],
      "stateMutability": "view",
      "type": "function"
    },
    {
      "inputs": [
        {
          "internalType": "uint256",
          "name": "_interestRate",
          "type": "uint256"
        },
        {
          "internalType": "uint256",
          "name": "_reserves",
          "type": "uint256"
        }
      ],
      "name": "createReserves",
      "outputs": [],
      "stateMutability": "nonpayable",
      "type": "function"
    },
    {
      "inputs": [],
      "name": "fNftTradingRate",
      "outputs": [
        {
          "internalType": "uint256",
          "name": "",
          "type": "uint256"
        }
      ],
      "stateMutability": "view",
      "type": "function"
    },
    {
      "inputs": [],
      "name": "getLoansCount",
      "outputs": [
        {
          "internalType": "uint256",
          "name": "",
          "type": "uint256"
        }
      ],
      "stateMutability": "view",
      "type": "function"
    },
    {
      "inputs": [
        {
          "internalType": "uint256",
          "name": "_loanIndex",
          "type": "uint256"
        }
      ],
      "name": "getRemainingReserves",
      "outputs": [
        {
          "internalType": "uint256",
          "name": "",
          "type": "uint256"
        }
      ],
      "stateMutability": "view",
      "type": "function"
    },
    {
      "inputs": [
        {
          "internalType": "address",
          "name": "",
          "type": "address"
        }
      ],
      "name": "loanBalance",
      "outputs": [
        {
          "internalType": "uint256",
          "name": "",
          "type": "uint256"
        }
      ],
      "stateMutability": "view",
      "type": "function"
    },
    {
      "inputs": [
        {
          "internalType": "uint256",
          "name": "",
          "type": "uint256"
        }
      ],
      "name": "loans",
      "outputs": [
        {
          "internalType": "uint256",
          "name": "id",
          "type": "uint256"
        },
        {
          "internalType": "address",
          "name": "loanOwner",
          "type": "address"
        },
        {
          "internalType": "uint256",
          "name": "interestRate",
          "type": "uint256"
        },
        {
          "internalType": "uint256",
          "name": "totalReserves",
          "type": "uint256"
        },
        {
          "internalType": "uint256",
          "name": "remainingReserves",
          "type": "uint256"
        },
        {
          "internalType": "bool",
          "name": "isForSale",
          "type": "bool"
        },
        {
          "internalType": "uint256",
          "name": "sellAmount",
          "type": "uint256"
        },
        {
          "internalType": "bool",
          "name": "isAvailable",
          "type": "bool"
        }
      ],
      "stateMutability": "view",
      "type": "function"
    },
    {
      "inputs": [
        {
          "internalType": "uint256",
          "name": "loanIndex",
          "type": "uint256"
        }
      ],
      "name": "markLoanAsUnavailable",
      "outputs": [],
      "stateMutability": "nonpayable",
      "type": "function"
    },
    {
      "inputs": [],
      "name": "mokiRate",
      "outputs": [
        {
          "internalType": "uint256",
          "name": "",
          "type": "uint256"
        }
      ],
      "stateMutability": "view",
      "type": "function"
    },
    {
      "inputs": [],
      "name": "mokiToken",
      "outputs": [
        {
          "internalType": "contract EmpowerDefiToken",
          "name": "",
          "type": "address"
        }
      ],
      "stateMutability": "view",
      "type": "function"
    },
    {
      "inputs": [],
      "name": "nft",
      "outputs": [
        {
          "internalType": "contract EmpowerDefiNFT",
          "name": "",
          "type": "address"
        }
      ],
      "stateMutability": "view",
      "type": "function"
    },
    {
      "inputs": [],
      "name": "owner",
      "outputs": [
        {
          "internalType": "address",
          "name": "",
          "type": "address"
        }
      ],
      "stateMutability": "view",
      "type": "function"
    },
    {
      "inputs": [
        {
          "internalType": "uint256",
          "name": "_loanIndex",
          "type": "uint256"
        },
        {
          "internalType": "uint256",
          "name": "_amount",
          "type": "uint256"
        }
      ],
      "name": "pay",
      "outputs": [],
      "stateMutability": "nonpayable",
      "type": "function"
    },
    {
      "inputs": [],
      "name": "platformEarnings",
      "outputs": [
        {
          "internalType": "uint256",
          "name": "",
          "type": "uint256"
        }
      ],
      "stateMutability": "view",
      "type": "function"
    },
    {
      "inputs": [],
      "name": "renounceOwnership",
      "outputs": [],
      "stateMutability": "nonpayable",
      "type": "function"
    },
    {
      "inputs": [
        {
          "internalType": "address",
          "name": "",
          "type": "address"
        }
      ],
      "name": "reserves",
      "outputs": [
        {
          "internalType": "uint256",
          "name": "",
          "type": "uint256"
        }
      ],
      "stateMutability": "view",
      "type": "function"
    },
    {
      "inputs": [
        {
          "internalType": "uint256",
          "name": "_loanIndex",
          "type": "uint256"
        },
        {
          "internalType": "uint256",
          "name": "_sellAmount",
          "type": "uint256"
        }
      ],
      "name": "sellFnft",
      "outputs": [],
      "stateMutability": "nonpayable",
      "type": "function"
    },
    {
      "inputs": [
        {
          "internalType": "address",
          "name": "_newAddress",
          "type": "address"
        }
      ],
      "name": "setAdminWallet",
      "outputs": [],
      "stateMutability": "nonpayable",
      "type": "function"
    },
    {
      "inputs": [
        {
          "internalType": "uint256",
          "name": "_amount",
          "type": "uint256"
        }
      ],
      "name": "setAllowance",
      "outputs": [],
      "stateMutability": "nonpayable",
      "type": "function"
    },
    {
      "inputs": [
        {
          "internalType": "uint256",
          "name": "_newRate",
          "type": "uint256"
        }
      ],
      "name": "setMokiRate",
      "outputs": [],
      "stateMutability": "nonpayable",
      "type": "function"
    },
    {
      "inputs": [
        {
          "internalType": "address",
          "name": "_tokenAddress",
          "type": "address"
        }
      ],
      "name": "setMokiTokenAddress",
      "outputs": [],
      "stateMutability": "nonpayable",
      "type": "function"
    },
    {
      "inputs": [
        {
          "internalType": "address",
          "name": "_nftAddress",
          "type": "address"
        }
      ],
      "name": "setNftAddress",
      "outputs": [],
      "stateMutability": "nonpayable",
      "type": "function"
    },
    {
      "inputs": [
        {
          "internalType": "address",
          "name": "_newUsdcAddress",
          "type": "address"
        }
      ],
      "name": "setUsdcAddress",
      "outputs": [],
      "stateMutability": "nonpayable",
      "type": "function"
    },
    {
      "inputs": [
        {
          "internalType": "address",
          "name": "newOwner",
          "type": "address"
        }
      ],
      "name": "transferOwnership",
      "outputs": [],
      "stateMutability": "nonpayable",
      "type": "function"
    },
    {
      "inputs": [],
      "name": "usdcAddress",
      "outputs": [
        {
          "internalType": "address",
          "name": "",
          "type": "address"
        }
      ],
      "stateMutability": "view",
      "type": "function"
    },
    {
      "inputs": [],
      "name": "withdrawAdminEarnings",
      "outputs": [],
      "stateMutability": "nonpayable",
      "type": "function"
    },
    {
      "inputs": [],
      "name": "withdrawUserEarnings",
      "outputs": [],
      "stateMutability": "nonpayable",
      "type": "function"
    }
  ],
  "bytecode": "0x6080604052600160055566f8b0a10e470000600655600a60075560006008553480156200002b57600080fd5b5060405162003b9938038062003b998339818101604052810190620000519190620003c9565b62000071620000656200029360201b60201c565b6200029b60201b60201c565b600073ffffffffffffffffffffffffffffffffffffffff168373ffffffffffffffffffffffffffffffffffffffff1603620000e3576040517f08c379a0000000000000000000000000000000000000000000000000000000008152600401620000da9062000486565b60405180910390fd5b600073ffffffffffffffffffffffffffffffffffffffff168173ffffffffffffffffffffffffffffffffffffffff160362000155576040517f08c379a00000000000000000000000000000000000000000000000000000000081526004016200014c9062000486565b60405180910390fd5b600073ffffffffffffffffffffffffffffffffffffffff168273ffffffffffffffffffffffffffffffffffffffff1603620001c7576040517f08c379a0000000000000000000000000000000000000000000000000000000008152600401620001be90620004f8565b60405180910390fd5b82600360006101000a81548173ffffffffffffffffffffffffffffffffffffffff021916908373ffffffffffffffffffffffffffffffffffffffff16021790555081600260006101000a81548173ffffffffffffffffffffffffffffffffffffffff021916908373ffffffffffffffffffffffffffffffffffffffff16021790555080600160006101000a81548173ffffffffffffffffffffffffffffffffffffffff021916908373ffffffffffffffffffffffffffffffffffffffff1602179055505050506200051a565b600033905090565b60008060009054906101000a900473ffffffffffffffffffffffffffffffffffffffff169050816000806101000a81548173ffffffffffffffffffffffffffffffffffffffff021916908373ffffffffffffffffffffffffffffffffffffffff1602179055508173ffffffffffffffffffffffffffffffffffffffff168173ffffffffffffffffffffffffffffffffffffffff167f8be0079c531659141344cd1fd0a4f28419497f9722a3daafe3b4186f6b6457e060405160405180910390a35050565b600080fd5b600073ffffffffffffffffffffffffffffffffffffffff82169050919050565b6000620003918262000364565b9050919050565b620003a38162000384565b8114620003af57600080fd5b50565b600081519050620003c38162000398565b92915050565b600080600060608486031215620003e557620003e46200035f565b5b6000620003f586828701620003b2565b93505060206200040886828701620003b2565b92505060406200041b86828701620003b2565b9150509250925092565b600082825260208201905092915050565b7f496e76616c696420746f6b656e20616464726573730000000000000000000000600082015250565b60006200046e60158362000425565b91506200047b8262000436565b602082019050919050565b60006020820190508181036000830152620004a1816200045f565b9050919050565b7f496e76616c6964204e4654206164647265737300000000000000000000000000600082015250565b6000620004e060138362000425565b9150620004ed82620004a8565b602082019050919050565b600060208201905081810360008301526200051381620004d1565b9050919050565b61366f806200052a6000396000f3fe608060405234801561001057600080fd5b50600436106101e55760003560e01c806383266e9b1161010f578063be820aa2116100a2578063e1ec3c6811610071578063e1ec3c681461050a578063ef48eee614610541578063f2fde38b1461055d578063f4e240ff14610579576101e5565b8063be820aa214610482578063cc6e1259146104a0578063d38bcdee146104be578063d66bd524146104da576101e5565b80639aae66f9116100de5780639aae66f914610422578063a56f000914610452578063a6aabc071461045c578063b4b4768d14610478576101e5565b806383266e9b1461038657806389885049146103b65780638da5cb5b146103e65780638df44f4d14610404576101e5565b80633ba93f26116101875780636c076b31116101565780636c076b31146103285780636dd93d4314610344578063715018a61461036057806381796bea1461036a576101e5565b80633ba93f26146102b457806347ccca02146102d05780634f01f908146102ee5780635a2883311461030c576101e5565b80630c97200a116101c35780630c97200a146102405780630ecbcdab1461025e578063350829331461027a57806336b19cd714610296576101e5565b806302d45457146101ea57806307628350146102085780630b102d1a14610224575b600080fd5b6101f26105ab565b6040516101ff919061276c565b60405180910390f35b610222600480360381019061021d91906127c2565b6105d1565b005b61023e6004803603810190610239919061281b565b61061a565b005b6102486106d5565b6040516102559190612857565b60405180910390f35b61027860048036038101906102739190612872565b6106eb565b005b610294600480360381019061028f919061281b565b610bfc565b005b61029e610cee565b6040516102ab919061276c565b60405180910390f35b6102ce60048036038101906102c991906127c2565b610d14565b005b6102d8610dc6565b6040516102e59190612911565b60405180910390f35b6102f6610dec565b6040516103039190612857565b60405180910390f35b6103266004803603810190610321919061281b565b610df2565b005b610342600480360381019061033d91906127c2565b610ead565b005b61035e60048036038101906103599190612872565b611509565b005b610368611817565b005b610384600480360381019061037f9190612872565b61182b565b005b6103a0600480360381019061039b91906127c2565b61195b565b6040516103ad9190612857565b60405180910390f35b6103d060048036038101906103cb919061281b565b61197b565b6040516103dd9190612857565b60405180910390f35b6103ee611993565b6040516103fb919061276c565b60405180910390f35b61040c6119bc565b6040516104199190612857565b60405180910390f35b61043c6004803603810190610437919061281b565b6119c2565b6040516104499190612857565b60405180910390f35b61045a6119da565b005b610476600480360381019061047191906127c2565b611b31565b005b610480611cba565b005b61048a611ee7565b6040516104979190612857565b60405180910390f35b6104a8611eed565b6040516104b5919061294d565b60405180910390f35b6104d860048036038101906104d3919061281b565b611f13565b005b6104f460048036038101906104ef919061281b565b611fce565b6040516105019190612857565b60405180910390f35b610524600480360381019061051f91906127c2565b611fe6565b604051610538989796959493929190612983565b60405180910390f35b61055b60048036038101906105569190612872565b612068565b005b6105776004803603810190610572919061281b565b6124e8565b005b610593600480360381019061058e91906127c2565b61256b565b6040516105a293929190612a01565b60405180910390f35b600360009054906101000a900473ffffffffffffffffffffffffffffffffffffffff1681565b6105d96125b5565b806006819055507fe65c987b2e4668e09ba867026921588005b2b2063607a1e7e7d91683c8f91b7b8160405161060f9190612857565b60405180910390a150565b6106226125b5565b600073ffffffffffffffffffffffffffffffffffffffff168173ffffffffffffffffffffffffffffffffffffffff1603610691576040517f08c379a000000000000000000000000000000000000000000000000000000000815260040161068890612a95565b60405180910390fd5b80600260006101000a81548173ffffffffffffffffffffffffffffffffffffffff021916908373ffffffffffffffffffffffffffffffffffffffff16021790555050565b600060016005546106e69190612ae4565b905090565b6009600083815260200190815260200160002060070160009054906101000a900460ff1661074e576040517f08c379a000000000000000000000000000000000000000000000000000000000815260040161074590612b64565b60405180910390fd5b60008111610791576040517f08c379a000000000000000000000000000000000000000000000000000000000815260040161078890612bf6565b60405180910390fd5b80600960008481526020019081526020016000206004015410156107ea576040517f08c379a00000000000000000000000000000000000000000000000000000000081526004016107e190612c62565b60405180910390fd5b806009600084815260200190815260200160002060040160008282546108109190612ae4565b9250508190555060405180606001604052808381526020013373ffffffffffffffffffffffffffffffffffffffff16815260200182815250600a60008481526020019081526020016000206000820151816000015560208201518160010160006101000a81548173ffffffffffffffffffffffffffffffffffffffff021916908373ffffffffffffffffffffffffffffffffffffffff1602179055506040820151816002015590505060006009600084815260200190815260200160002060010160009054906101000a900473ffffffffffffffffffffffffffffffffffffffff1690506000600360009054906101000a900473ffffffffffffffffffffffffffffffffffffffff1690508073ffffffffffffffffffffffffffffffffffffffff166323b872dd3033866040518463ffffffff1660e01b815260040161095893929190612c82565b6020604051808303816000875af1158015610977573d6000803e3d6000fd5b505050506040513d601f19601f8201168201806040525081019061099b9190612ce5565b50600260009054906101000a900473ffffffffffffffffffffffffffffffffffffffff1673ffffffffffffffffffffffffffffffffffffffff166342842e0e600260009054906101000a900473ffffffffffffffffffffffffffffffffffffffff1673ffffffffffffffffffffffffffffffffffffffff16638da5cb5b6040518163ffffffff1660e01b8152600401602060405180830381865afa158015610a47573d6000803e3d6000fd5b505050506040513d601f19601f82011682018060405250810190610a6b9190612d27565b84876040518463ffffffff1660e01b8152600401610a8b93929190612c82565b600060405180830381600087803b158015610aa557600080fd5b505af1158015610ab9573d6000803e3d6000fd5b5050505082600b60003373ffffffffffffffffffffffffffffffffffffffff1673ffffffffffffffffffffffffffffffffffffffff16815260200190815260200160002081905550600160009054906101000a900473ffffffffffffffffffffffffffffffffffffffff1673ffffffffffffffffffffffffffffffffffffffff166379cc679033856040518363ffffffff1660e01b8152600401610b5e929190612d54565b600060405180830381600087803b158015610b7857600080fd5b505af1158015610b8c573d6000803e3d6000fd5b50505050838273ffffffffffffffffffffffffffffffffffffffff163373ffffffffffffffffffffffffffffffffffffffff167f7f626adc85b5f43dc532ba939b48a2f13c0f446ba20a7e1d9fe755c9ccb2b8db86604051610bee9190612857565b60405180910390a450505050565b610c046125b5565b600073ffffffffffffffffffffffffffffffffffffffff168173ffffffffffffffffffffffffffffffffffffffff1603610c73576040517f08c379a0000000000000000000000000000000000000000000000000000000008152600401610c6a90612dc9565b60405180910390fd5b80600460006101000a81548173ffffffffffffffffffffffffffffffffffffffff021916908373ffffffffffffffffffffffffffffffffffffffff1602179055507f65ef617d87f7e47ab080058ac1d5ebf06817bbd817e49898ab9f9532405ecd9b81604051610ce3919061276c565b60405180910390a150565b600460009054906101000a900473ffffffffffffffffffffffffffffffffffffffff1681565b610d1c6125b5565b6000600360009054906101000a900473ffffffffffffffffffffffffffffffffffffffff1690508073ffffffffffffffffffffffffffffffffffffffff1663095ea7b330846040518363ffffffff1660e01b8152600401610d7e929190612d54565b6020604051808303816000875af1158015610d9d573d6000803e3d6000fd5b505050506040513d601f19601f82011682018060405250810190610dc19190612ce5565b505050565b600260009054906101000a900473ffffffffffffffffffffffffffffffffffffffff1681565b60065481565b610dfa6125b5565b600073ffffffffffffffffffffffffffffffffffffffff168173ffffffffffffffffffffffffffffffffffffffff1603610e69576040517f08c379a0000000000000000000000000000000000000000000000000000000008152600401610e6090612e35565b60405180910390fd5b80600160006101000a81548173ffffffffffffffffffffffffffffffffffffffff021916908373ffffffffffffffffffffffffffffffffffffffff16021790555050565b6009600082815260200190815260200160002060050160009054906101000a900460ff16610f10576040517f08c379a0000000000000000000000000000000000000000000000000000000008152600401610f0790612ea1565b60405180910390fd5b60006009600083815260200190815260200160002060010160009054906101000a900473ffffffffffffffffffffffffffffffffffffffff1690506000600960008481526020019081526020016000206006015490506000606460075483610f789190612ec1565b610f829190612f32565b90506000600360009054906101000a900473ffffffffffffffffffffffffffffffffffffffff1690508073ffffffffffffffffffffffffffffffffffffffff1663a9059cbb30846040518363ffffffff1660e01b8152600401610fe6929190612d54565b6020604051808303816000875af1158015611005573d6000803e3d6000fd5b505050506040513d601f19601f820116820180604052508101906110299190612ce5565b611068576040517f08c379a000000000000000000000000000000000000000000000000000000000815260040161105f90612faf565b60405180910390fd5b8073ffffffffffffffffffffffffffffffffffffffff1663a9059cbb85856040518363ffffffff1660e01b81526004016110a3929190612d54565b6020604051808303816000875af11580156110c2573d6000803e3d6000fd5b505050506040513d601f19601f820116820180604052508101906110e69190612ce5565b611125576040517f08c379a000000000000000000000000000000000000000000000000000000000815260040161111c9061301b565b60405180910390fd5b7f58d96f586bec6e1ce81ccec7505e6228fbd2fde1737d7fd0cfb4ec4d0b9d03903383604051611156929190612d54565b60405180910390a16009600086815260200190815260200160002060030154600c60003373ffffffffffffffffffffffffffffffffffffffff1673ffffffffffffffffffffffffffffffffffffffff16815260200190815260200160002060008282546111c3919061303b565b925050819055506009600086815260200190815260200160002060030154600c60008673ffffffffffffffffffffffffffffffffffffffff1673ffffffffffffffffffffffffffffffffffffffff168152602001908152602001600020600082825461122f9190612ae4565b92505081905550336009600087815260200190815260200160002060010160006101000a81548173ffffffffffffffffffffffffffffffffffffffff021916908373ffffffffffffffffffffffffffffffffffffffff16021790555060006009600087815260200190815260200160002060050160006101000a81548160ff021916908315150217905550600060096000878152602001908152602001600020600601819055507f4f27dd134a02690a551bc1d8a5e010dbf45d6002404bd1a8652e50d819f12dee85600033600060405161130d94939291906130aa565b60405180910390a1600260009054906101000a900473ffffffffffffffffffffffffffffffffffffffff1673ffffffffffffffffffffffffffffffffffffffff166342842e0e8533886040518463ffffffff1660e01b815260040161137493929190612c82565b600060405180830381600087803b15801561138e57600080fd5b505af11580156113a2573d6000803e3d6000fd5b505050508373ffffffffffffffffffffffffffffffffffffffff16600260009054906101000a900473ffffffffffffffffffffffffffffffffffffffff1673ffffffffffffffffffffffffffffffffffffffff16636352211e876040518263ffffffff1660e01b81526004016114189190612857565b602060405180830381865afa158015611435573d6000803e3d6000fd5b505050506040513d601f19601f820116820180604052508101906114599190612d27565b73ffffffffffffffffffffffffffffffffffffffff16146114af576040517f08c379a00000000000000000000000000000000000000000000000000000000081526004016114a69061313b565b60405180910390fd5b7f472a4dfcb6ebabd0b7cc1e4cc8b971d0eac2b0700a3190ce6c5c36c450986d2c853386600960008a8152602001908152602001600020600601546040516114fa949392919061315b565b60405180910390a15050505050565b6000821161154c576040517f08c379a0000000000000000000000000000000000000000000000000000000008152600401611543906131ec565b60405180910390fd5b6000811161158f576040517f08c379a000000000000000000000000000000000000000000000000000000000815260040161158690613258565b60405180910390fd5b60405180610100016040528060055481526020013373ffffffffffffffffffffffffffffffffffffffff16815260200183815260200182815260200182815260200160001515815260200160008152602001600115158152506009600060055481526020019081526020016000206000820151816000015560208201518160010160006101000a81548173ffffffffffffffffffffffffffffffffffffffff021916908373ffffffffffffffffffffffffffffffffffffffff16021790555060408201518160020155606082015181600301556080820151816004015560a08201518160050160006101000a81548160ff02191690831515021790555060c0820151816006015560e08201518160070160006101000a81548160ff0219169083151502179055509050506000600360009054906101000a900473ffffffffffffffffffffffffffffffffffffffff1690508073ffffffffffffffffffffffffffffffffffffffff166323b872dd3330856040518463ffffffff1660e01b815260040161171d93929190612c82565b6020604051808303816000875af115801561173c573d6000803e3d6000fd5b505050506040513d601f19601f820116820180604052508101906117609190612ce5565b5081600c60003373ffffffffffffffffffffffffffffffffffffffff1673ffffffffffffffffffffffffffffffffffffffff168152602001908152602001600020819055506005543373ffffffffffffffffffffffffffffffffffffffff167feb1b9cb9f48015b1f5fb1bf79ca989aec99d9f4e04c5b73f2124e28d45b399208585866040516117f293929190613278565b60405180910390a36005600081548092919061180d906132af565b9190505550505050565b61181f6125b5565b6118296000612633565b565b6009600083815260200190815260200160002060010160009054906101000a900473ffffffffffffffffffffffffffffffffffffffff1673ffffffffffffffffffffffffffffffffffffffff163373ffffffffffffffffffffffffffffffffffffffff16146118cf576040517f08c379a00000000000000000000000000000000000000000000000000000000081526004016118c690613369565b60405180910390fd5b60016009600084815260200190815260200160002060050160006101000a81548160ff0219169083151502179055508060096000848152602001908152602001600020600601819055507f4f27dd134a02690a551bc1d8a5e010dbf45d6002404bd1a8652e50d819f12dee826001338460405161194f9493929190613389565b60405180910390a15050565b600060096000838152602001908152602001600020600401549050919050565b600d6020528060005260406000206000915090505481565b60008060009054906101000a900473ffffffffffffffffffffffffffffffffffffffff16905090565b60075481565b600b6020528060005260406000206000915090505481565b6119e26125b5565b600060085411611a27576040517f08c379a0000000000000000000000000000000000000000000000000000000008152600401611a1e9061341a565b60405180910390fd5b6000600360009054906101000a900473ffffffffffffffffffffffffffffffffffffffff1690508073ffffffffffffffffffffffffffffffffffffffff166323b872dd30600460009054906101000a900473ffffffffffffffffffffffffffffffffffffffff166008546040518463ffffffff1660e01b8152600401611aaf93929190612c82565b6020604051808303816000875af1158015611ace573d6000803e3d6000fd5b505050506040513d601f19601f82011682018060405250810190611af29190612ce5565b507fd85af0deee5bae14c727b36baaaffda8555003264c3f2f4371b561788a44e2c642600854604051611b2692919061343a565b60405180910390a150565b3073ffffffffffffffffffffffffffffffffffffffff16638da5cb5b6040518163ffffffff1660e01b8152600401602060405180830381865afa158015611b7c573d6000803e3d6000fd5b505050506040513d601f19601f82011682018060405250810190611ba09190612d27565b73ffffffffffffffffffffffffffffffffffffffff163373ffffffffffffffffffffffffffffffffffffffff161480611c3c575060096000600554815260200190815260200160002060010160009054906101000a900473ffffffffffffffffffffffffffffffffffffffff1673ffffffffffffffffffffffffffffffffffffffff163373ffffffffffffffffffffffffffffffffffffffff16145b15611cb757600060096000600554815260200190815260200160002060070160006101000a81548160ff021916908315150217905550803373ffffffffffffffffffffffffffffffffffffffff167fca750fb87b510a1057a7b2006f64facbb0e0d7b41b7c83da1ad49ad684e1f4e160405160405180910390a35b50565b6000600c60003373ffffffffffffffffffffffffffffffffffffffff1673ffffffffffffffffffffffffffffffffffffffff1681526020019081526020016000205411611d3c576040517f08c379a0000000000000000000000000000000000000000000000000000000008152600401611d33906134af565b60405180910390fd5b6000600d60003373ffffffffffffffffffffffffffffffffffffffff1673ffffffffffffffffffffffffffffffffffffffff1681526020019081526020016000205411611dbe576040517f08c379a0000000000000000000000000000000000000000000000000000000008152600401611db59061341a565b60405180910390fd5b6000600360009054906101000a900473ffffffffffffffffffffffffffffffffffffffff1690506000600d60003373ffffffffffffffffffffffffffffffffffffffff1673ffffffffffffffffffffffffffffffffffffffff1681526020019081526020016000205490508173ffffffffffffffffffffffffffffffffffffffff166323b872dd3033846040518463ffffffff1660e01b8152600401611e6693929190612c82565b6020604051808303816000875af1158015611e85573d6000803e3d6000fd5b505050506040513d601f19601f82011682018060405250810190611ea99190612ce5565b507fc7c8ab309277169a63ed070feed2a9c7de84e71be9d50f6f06c898458562561c3382604051611edb929190612d54565b60405180910390a15050565b60085481565b600160009054906101000a900473ffffffffffffffffffffffffffffffffffffffff1681565b611f1b6125b5565b600073ffffffffffffffffffffffffffffffffffffffff168173ffffffffffffffffffffffffffffffffffffffff1603611f8a576040517f08c379a0000000000000000000000000000000000000000000000000000000008152600401611f8190612e35565b60405180910390fd5b80600360006101000a81548173ffffffffffffffffffffffffffffffffffffffff021916908373ffffffffffffffffffffffffffffffffffffffff16021790555050565b600c6020528060005260406000206000915090505481565b60096020528060005260406000206000915090508060000154908060010160009054906101000a900473ffffffffffffffffffffffffffffffffffffffff16908060020154908060030154908060040154908060050160009054906101000a900460ff16908060060154908060070160009054906101000a900460ff16905088565b6000600a600084815260200190815260200160002060020154905060006120af6120a88360096000888152602001908152602001600020600201546126f7565b606461270d565b905060006064600654856120c39190612ec1565b6120cd9190612f32565b9050600082846120dd919061303b565b905060008511612122576040517f08c379a00000000000000000000000000000000000000000000000000000000081526004016121199061351b565b60405180910390fd5b6000600360009054906101000a900473ffffffffffffffffffffffffffffffffffffffff1690508073ffffffffffffffffffffffffffffffffffffffff166323b872dd3330866040518463ffffffff1660e01b815260040161218693929190612c82565b6020604051808303816000875af11580156121a5573d6000803e3d6000fd5b505050506040513d601f19601f820116820180604052508101906121c99190612ce5565b5082600860008282546121dc919061303b565b925050819055507f58d96f586bec6e1ce81ccec7505e6228fbd2fde1737d7fd0cfb4ec4d0b9d03903384604051612214929190612d54565b60405180910390a18073ffffffffffffffffffffffffffffffffffffffff166323b872dd33600960008b815260200190815260200160002060010160009054906101000a900473ffffffffffffffffffffffffffffffffffffffff16856040518463ffffffff1660e01b815260040161228f93929190612c82565b6020604051808303816000875af11580156122ae573d6000803e3d6000fd5b505050506040513d601f19601f820116820180604052508101906122d29190612ce5565b5081600d6000600960008b815260200190815260200160002060010160009054906101000a900473ffffffffffffffffffffffffffffffffffffffff1673ffffffffffffffffffffffffffffffffffffffff1673ffffffffffffffffffffffffffffffffffffffff1681526020019081526020016000206000828254612358919061303b565b925050819055507fd52bd61f7c422d441e024604f4517878fd3305d6acf0fe37baef23ed21af6bc933600960008a815260200190815260200160002060010160009054906101000a900473ffffffffffffffffffffffffffffffffffffffff16846040516123c893929190612c82565b60405180910390a181600b60003373ffffffffffffffffffffffffffffffffffffffff1673ffffffffffffffffffffffffffffffffffffffff168152602001908152602001600020600082825461241f9190612ae4565b925050819055508560096000898152602001908152602001600020600401600082825461244c919061303b565b9250508190555085600c6000600960008b815260200190815260200160002060010160009054906101000a900473ffffffffffffffffffffffffffffffffffffffff1673ffffffffffffffffffffffffffffffffffffffff1673ffffffffffffffffffffffffffffffffffffffff16815260200190815260200160002060008282546124d8919061303b565b9250508190555050505050505050565b6124f06125b5565b600073ffffffffffffffffffffffffffffffffffffffff168173ffffffffffffffffffffffffffffffffffffffff160361255f576040517f08c379a0000000000000000000000000000000000000000000000000000000008152600401612556906135ad565b60405180910390fd5b61256881612633565b50565b600a6020528060005260406000206000915090508060000154908060010160009054906101000a900473ffffffffffffffffffffffffffffffffffffffff16908060020154905083565b6125bd612723565b73ffffffffffffffffffffffffffffffffffffffff166125db611993565b73ffffffffffffffffffffffffffffffffffffffff1614612631576040517f08c379a000000000000000000000000000000000000000000000000000000000815260040161262890613619565b60405180910390fd5b565b60008060009054906101000a900473ffffffffffffffffffffffffffffffffffffffff169050816000806101000a81548173ffffffffffffffffffffffffffffffffffffffff021916908373ffffffffffffffffffffffffffffffffffffffff1602179055508173ffffffffffffffffffffffffffffffffffffffff168173ffffffffffffffffffffffffffffffffffffffff167f8be0079c531659141344cd1fd0a4f28419497f9722a3daafe3b4186f6b6457e060405160405180910390a35050565b600081836127059190612ec1565b905092915050565b6000818361271b9190612f32565b905092915050565b600033905090565b600073ffffffffffffffffffffffffffffffffffffffff82169050919050565b60006127568261272b565b9050919050565b6127668161274b565b82525050565b6000602082019050612781600083018461275d565b92915050565b600080fd5b6000819050919050565b61279f8161278c565b81146127aa57600080fd5b50565b6000813590506127bc81612796565b92915050565b6000602082840312156127d8576127d7612787565b5b60006127e6848285016127ad565b91505092915050565b6127f88161274b565b811461280357600080fd5b50565b600081359050612815816127ef565b92915050565b60006020828403121561283157612830612787565b5b600061283f84828501612806565b91505092915050565b6128518161278c565b82525050565b600060208201905061286c6000830184612848565b92915050565b6000806040838503121561288957612888612787565b5b6000612897858286016127ad565b92505060206128a8858286016127ad565b9150509250929050565b6000819050919050565b60006128d76128d26128cd8461272b565b6128b2565b61272b565b9050919050565b60006128e9826128bc565b9050919050565b60006128fb826128de565b9050919050565b61290b816128f0565b82525050565b60006020820190506129266000830184612902565b92915050565b6000612937826128de565b9050919050565b6129478161292c565b82525050565b6000602082019050612962600083018461293e565b92915050565b60008115159050919050565b61297d81612968565b82525050565b600061010082019050612999600083018b612848565b6129a6602083018a61275d565b6129b36040830189612848565b6129c06060830188612848565b6129cd6080830187612848565b6129da60a0830186612974565b6129e760c0830185612848565b6129f460e0830184612974565b9998505050505050505050565b6000606082019050612a166000830186612848565b612a23602083018561275d565b612a306040830184612848565b949350505050565b600082825260208201905092915050565b7f496e76616c6964204e4654206164647265737300000000000000000000000000600082015250565b6000612a7f601383612a38565b9150612a8a82612a49565b602082019050919050565b60006020820190508181036000830152612aae81612a72565b9050919050565b7f4e487b7100000000000000000000000000000000000000000000000000000000600052601160045260246000fd5b6000612aef8261278c565b9150612afa8361278c565b9250828203905081811115612b1257612b11612ab5565b5b92915050565b7f4c6f616e206e6f206c6f6e67657220617661696c61626c650000000000000000600082015250565b6000612b4e601883612a38565b9150612b5982612b18565b602082019050919050565b60006020820190508181036000830152612b7d81612b41565b9050919050565b7f426f72726f7720616d6f756e742073686f756c6420626520677265617465722060008201527f7468616e20300000000000000000000000000000000000000000000000000000602082015250565b6000612be0602683612a38565b9150612beb82612b84565b604082019050919050565b60006020820190508181036000830152612c0f81612bd3565b9050919050565b7f5265736572766520697320746f6f206c6f770000000000000000000000000000600082015250565b6000612c4c601283612a38565b9150612c5782612c16565b602082019050919050565b60006020820190508181036000830152612c7b81612c3f565b9050919050565b6000606082019050612c97600083018661275d565b612ca4602083018561275d565b612cb16040830184612848565b949350505050565b612cc281612968565b8114612ccd57600080fd5b50565b600081519050612cdf81612cb9565b92915050565b600060208284031215612cfb57612cfa612787565b5b6000612d0984828501612cd0565b91505092915050565b600081519050612d21816127ef565b92915050565b600060208284031215612d3d57612d3c612787565b5b6000612d4b84828501612d12565b91505092915050565b6000604082019050612d69600083018561275d565b612d766020830184612848565b9392505050565b7f496e76616c69642077616c6c6574206164647265737300000000000000000000600082015250565b6000612db3601683612a38565b9150612dbe82612d7d565b602082019050919050565b60006020820190508181036000830152612de281612da6565b9050919050565b7f496e76616c696420746f6b656e20616464726573730000000000000000000000600082015250565b6000612e1f601583612a38565b9150612e2a82612de9565b602082019050919050565b60006020820190508181036000830152612e4e81612e12565b9050919050565b7f5468697320464e6674206973206e6f7420666f722073616c6500000000000000600082015250565b6000612e8b601983612a38565b9150612e9682612e55565b602082019050919050565b60006020820190508181036000830152612eba81612e7e565b9050919050565b6000612ecc8261278c565b9150612ed78361278c565b9250828202612ee58161278c565b91508282048414831517612efc57612efb612ab5565b5b5092915050565b7f4e487b7100000000000000000000000000000000000000000000000000000000600052601260045260246000fd5b6000612f3d8261278c565b9150612f488361278c565b925082612f5857612f57612f03565b5b828204905092915050565b7f54726164696e6720666565207061796d656e74206661696c6564000000000000600082015250565b6000612f99601a83612a38565b9150612fa482612f63565b602082019050919050565b60006020820190508181036000830152612fc881612f8c565b9050919050565b7f55534443207061796d656e74206661696c656400000000000000000000000000600082015250565b6000613005601383612a38565b915061301082612fcf565b602082019050919050565b6000602082019050818103600083015261303481612ff8565b9050919050565b60006130468261278c565b91506130518361278c565b925082820190508082111561306957613068612ab5565b5b92915050565b6000819050919050565b600061309461308f61308a8461306f565b6128b2565b61278c565b9050919050565b6130a481613079565b82525050565b60006080820190506130bf6000830187612848565b6130cc6020830186612974565b6130d9604083018561275d565b6130e6606083018461309b565b95945050505050565b7f664e4654207472616e73666572206661696c6564000000000000000000000000600082015250565b6000613125601483612a38565b9150613130826130ef565b602082019050919050565b6000602082019050818103600083015261315481613118565b9050919050565b60006080820190506131706000830187612848565b61317d602083018661275d565b61318a604083018561275d565b6131976060830184612848565b95945050505050565b7f496e7465726573742072617465206d757374206e6f74206265207a65726f0000600082015250565b60006131d6601e83612a38565b91506131e1826131a0565b602082019050919050565b60006020820190508181036000830152613205816131c9565b9050919050565b7f5265736572766573206d757374206e6f74206265207a65726f00000000000000600082015250565b6000613242601983612a38565b915061324d8261320c565b602082019050919050565b6000602082019050818103600083015261327181613235565b9050919050565b600060608201905061328d6000830186612848565b61329a6020830185612848565b6132a76040830184612848565b949350505050565b60006132ba8261278c565b91507fffffffffffffffffffffffffffffffffffffffffffffffffffffffffffffffff82036132ec576132eb612ab5565b5b600182019050919050565b7f596f7520617265206e6f7420746865206f776e6572206f662074686973206c6560008201527f6e64204944000000000000000000000000000000000000000000000000000000602082015250565b6000613353602583612a38565b915061335e826132f7565b604082019050919050565b6000602082019050818103600083015261338281613346565b9050919050565b600060808201905061339e6000830187612848565b6133ab6020830186612974565b6133b8604083018561275d565b6133c56060830184612848565b95945050505050565b7f4e6f7468696e6720746f20776974686472617700000000000000000000000000600082015250565b6000613404601383612a38565b915061340f826133ce565b602082019050919050565b60006020820190508181036000830152613433816133f7565b9050919050565b600060408201905061344f6000830185612848565b61345c6020830184612848565b9392505050565b7f4e6f206465706f73697465642072657365727665730000000000000000000000600082015250565b6000613499601583612a38565b91506134a482613463565b602082019050919050565b600060208201905081810360008301526134c88161348c565b9050919050565b7f4e6f207a65726f207061796d656e7420616c6c6f776564000000000000000000600082015250565b6000613505601783612a38565b9150613510826134cf565b602082019050919050565b60006020820190508181036000830152613534816134f8565b9050919050565b7f4f776e61626c653a206e6577206f776e657220697320746865207a65726f206160008201527f6464726573730000000000000000000000000000000000000000000000000000602082015250565b6000613597602683612a38565b91506135a28261353b565b604082019050919050565b600060208201905081810360008301526135c68161358a565b9050919050565b7f4f776e61626c653a2063616c6c6572206973206e6f7420746865206f776e6572600082015250565b6000613603602083612a38565b915061360e826135cd565b602082019050919050565b60006020820190508181036000830152613632816135f6565b905091905056fea26469706673582212204d87372c87f00b78ceaf51a604361d25023b47ea1ae078c3f3b8f177b8558f0a64736f6c63430008130033",
  "linkReferences": {},
  "deployedLinkReferences": {}
}